{
  "_format": "hh-sol-artifact-1",
  "contractName": "WishesWall",
  "sourceName": "contracts/WishesWall.sol",
  "abi": [
    {
      "inputs": [],
      "stateMutability": "payable",
      "type": "constructor"
    },
    {
      "anonymous": false,
      "inputs": [
        {
          "indexed": true,
          "internalType": "address",
          "name": "from",
          "type": "address"
        },
        {
          "indexed": false,
          "internalType": "uint256",
          "name": "timestamp",
          "type": "uint256"
        },
        {
          "indexed": false,
          "internalType": "string",
          "name": "message",
          "type": "string"
        }
      ],
      "name": "NewWish",
      "type": "event"
    },
    {
      "inputs": [],
      "name": "getAllWishes",
      "outputs": [
        {
          "components": [
            {
              "internalType": "address",
              "name": "owner",
              "type": "address"
            },
            {
              "internalType": "string",
              "name": "message",
              "type": "string"
            },
            {
              "internalType": "uint256",
              "name": "timestamp",
              "type": "uint256"
            }
          ],
          "internalType": "struct WishesWall.Wish[]",
          "name": "",
          "type": "tuple[]"
        }
      ],
      "stateMutability": "view",
      "type": "function"
    },
    {
      "inputs": [],
      "name": "getTotalWishes",
      "outputs": [
        {
          "internalType": "uint256",
          "name": "",
          "type": "uint256"
        }
      ],
      "stateMutability": "view",
      "type": "function"
    },
    {
      "inputs": [
        {
          "internalType": "address",
          "name": "",
          "type": "address"
        }
      ],
      "name": "lastWishAt",
      "outputs": [
        {
          "internalType": "uint256",
          "name": "",
          "type": "uint256"
        }
      ],
      "stateMutability": "view",
      "type": "function"
    },
    {
      "inputs": [
        {
          "internalType": "string",
          "name": "_message",
          "type": "string"
        }
      ],
      "name": "wish",
      "outputs": [],
      "stateMutability": "nonpayable",
      "type": "function"
    }
  ],
  "bytecode": "0x60806040526200003360405180606001604052806032815260200162001795603291396200005b60201b620008271760201c565b60644442620000439190620001a8565b6200004f919062000245565b600281905550620002ec565b620000fb8160405160240162000072919062000168565b6040516020818303038152906040527f41304fac000000000000000000000000000000000000000000000000000000007bffffffffffffffffffffffffffffffffffffffffffffffffffffffff19166020820180517bffffffffffffffffffffffffffffffffffffffffffffffffffffffff8381831617835250505050620000fe60201b60201c565b50565b60008151905060006a636f6e736f6c652e6c6f679050602083016000808483855afa5050505050565b600062000134826200018c565b62000140818562000197565b9350620001528185602086016200020f565b6200015d81620002db565b840191505092915050565b6000602082019050818103600083015262000184818462000127565b905092915050565b600081519050919050565b600082825260208201905092915050565b6000620001b58262000205565b9150620001c28362000205565b9250827fffffffffffffffffffffffffffffffffffffffffffffffffffffffffffffffff03821115620001fa57620001f96200027d565b5b828201905092915050565b6000819050919050565b60005b838110156200022f57808201518184015260208101905062000212565b838111156200023f576000848401525b50505050565b6000620002528262000205565b91506200025f8362000205565b925082620002725762000271620002ac565b5b828206905092915050565b7f4e487b7100000000000000000000000000000000000000000000000000000000600052601160045260246000fd5b7f4e487b7100000000000000000000000000000000000000000000000000000000600052601260045260246000fd5b6000601f19601f8301169050919050565b61149980620002fc6000396000f3fe608060405234801561001057600080fd5b506004361061004c5760003560e01c8063639d9520146100515780638da162e114610081578063af0b9f1a1461009d578063b523fc18146100bb575b600080fd5b61006b60048036038101906100669190610be3565b6100d9565b6040516100789190610fcc565b60405180910390f35b61009b60048036038101906100969190610c0c565b6100f1565b005b6100a56104ec565b6040516100b29190610e75565b60405180910390f35b6100c36107dc565b6040516100d09190610fcc565b60405180910390f35b60036020528060005260406000206000915090505481565b42610384600360003373ffffffffffffffffffffffffffffffffffffffff1673ffffffffffffffffffffffffffffffffffffffff1681526020019081526020016000205461013f91906110de565b1061017f576040517f08c379a000000000000000000000000000000000000000000000000000000000815260040161017690610f6c565b60405180910390fd5b42600360003373ffffffffffffffffffffffffffffffffffffffff1673ffffffffffffffffffffffffffffffffffffffff168152602001908152602001600020819055506000808154809291906101d590611215565b919050555061021a6040518060400160405280601581526020017f2573206861732073656e7420612077697368202573000000000000000000000081525033836108c0565b600160405180606001604052803373ffffffffffffffffffffffffffffffffffffffff16815260200183815260200142815250908060018154018082558091505060019003906000526020600020906003020160009091909190915060008201518160000160006101000a81548173ffffffffffffffffffffffffffffffffffffffff021916908373ffffffffffffffffffffffffffffffffffffffff16021790555060208201518160010190805190602001906102d9929190610ac3565b50604082015181600201555050606444426002546102f791906110de565b61030191906110de565b61030b919061125e565b6002819055506103526040518060400160405280601681526020017f52616e646f6d20232067656e6572617465643a2025640000000000000000000081525060025461095f565b603260025411610499576000655af3107a40009050478111156103aa576040517f08c379a00000000000000000000000000000000000000000000000000000000081526004016103a190610fac565b60405180910390fd5b60003373ffffffffffffffffffffffffffffffffffffffff16826040516103d090610e60565b60006040518083038185875af1925050503d806000811461040d576040519150601f19603f3d011682016040523d82523d6000602084013e610412565b606091505b5050905080610456576040517f08c379a000000000000000000000000000000000000000000000000000000000815260040161044d90610f8c565b60405180910390fd5b6104966040518060400160405280601481526020017f25732068617320776f6e2025642065746865722100000000000000000000000081525033846109fb565b50505b3373ffffffffffffffffffffffffffffffffffffffff167f8d35e13c755675f3ca709e944cd51ea68394c3e349a50cafeeaef6d638b0b42642836040516104e1929190610fe7565b60405180910390a250565b606060005b60005481101561068c576106796040518060400160405280600d81526020017f2573207769736865733a202573000000000000000000000000000000000000008152506001838154811061056e577f4e487b7100000000000000000000000000000000000000000000000000000000600052603260045260246000fd5b906000526020600020906003020160000160009054906101000a900473ffffffffffffffffffffffffffffffffffffffff16600184815481106105da577f4e487b7100000000000000000000000000000000000000000000000000000000600052603260045260246000fd5b906000526020600020906003020160010180546105f6906111b2565b80601f0160208091040260200160405190810160405280929190818152602001828054610622906111b2565b801561066f5780601f106106445761010080835404028352916020019161066f565b820191906000526020600020905b81548152906001019060200180831161065257829003601f168201915b50505050506108c0565b808061068490611215565b9150506104f1565b506001805480602002602001604051908101604052809291908181526020016000905b828210156107d357838290600052602060002090600302016040518060600160405290816000820160009054906101000a900473ffffffffffffffffffffffffffffffffffffffff1673ffffffffffffffffffffffffffffffffffffffff1673ffffffffffffffffffffffffffffffffffffffff168152602001600182018054610738906111b2565b80601f0160208091040260200160405190810160405280929190818152602001828054610764906111b2565b80156107b15780601f10610786576101008083540402835291602001916107b1565b820191906000526020600020905b81548152906001019060200180831161079457829003601f168201915b50505050508152602001600282015481525050815260200190600101906106af565b50505050905090565b600061081f6040518060400160405280601681526020017f576527766520256420746f74616c20776973686573210000000000000000000081525060005461095f565b600054905090565b6108bd8160405160240161083b9190610e97565b6040516020818303038152906040527f41304fac000000000000000000000000000000000000000000000000000000007bffffffffffffffffffffffffffffffffffffffffffffffffffffffff19166020820180517bffffffffffffffffffffffffffffffffffffffffffffffffffffffff8381831617835250505050610a9a565b50565b61095a8383836040516024016108d893929190610eb9565b6040516020818303038152906040527fe0e9ad4f000000000000000000000000000000000000000000000000000000007bffffffffffffffffffffffffffffffffffffffffffffffffffffffff19166020820180517bffffffffffffffffffffffffffffffffffffffffffffffffffffffff8381831617835250505050610a9a565b505050565b6109f78282604051602401610975929190610f3c565b6040516020818303038152906040527f9710a9d0000000000000000000000000000000000000000000000000000000007bffffffffffffffffffffffffffffffffffffffffffffffffffffffff19166020820180517bffffffffffffffffffffffffffffffffffffffffffffffffffffffff8381831617835250505050610a9a565b5050565b610a95838383604051602401610a1393929190610efe565b6040516020818303038152906040527f07c81217000000000000000000000000000000000000000000000000000000007bffffffffffffffffffffffffffffffffffffffffffffffffffffffff19166020820180517bffffffffffffffffffffffffffffffffffffffffffffffffffffffff8381831617835250505050610a9a565b505050565b60008151905060006a636f6e736f6c652e6c6f679050602083016000808483855afa5050505050565b828054610acf906111b2565b90600052602060002090601f016020900481019282610af15760008555610b38565b82601f10610b0a57805160ff1916838001178555610b38565b82800160010185558215610b38579182015b82811115610b37578251825591602001919060010190610b1c565b5b509050610b459190610b49565b5090565b5b80821115610b62576000816000905550600101610b4a565b5090565b6000610b79610b748461103c565b611017565b905082815260208101848484011115610b9157600080fd5b610b9c848285611170565b509392505050565b600081359050610bb38161144c565b92915050565b600082601f830112610bca57600080fd5b8135610bda848260208601610b66565b91505092915050565b600060208284031215610bf557600080fd5b6000610c0384828501610ba4565b91505092915050565b600060208284031215610c1e57600080fd5b600082013567ffffffffffffffff811115610c3857600080fd5b610c4484828501610bb9565b91505092915050565b6000610c598383610df2565b905092915050565b610c6a81611134565b82525050565b610c7981611134565b82525050565b6000610c8a8261107d565b610c9481856110a0565b935083602082028501610ca68561106d565b8060005b85811015610ce25784840389528151610cc38582610c4d565b9450610cce83611093565b925060208a01995050600181019050610caa565b50829750879550505050505092915050565b6000610cff82611088565b610d0981856110bc565b9350610d1981856020860161117f565b610d228161134b565b840191505092915050565b6000610d3882611088565b610d4281856110cd565b9350610d5281856020860161117f565b610d5b8161134b565b840191505092915050565b6000610d736036836110cd565b9150610d7e8261135c565b604082019050919050565b6000610d966027836110cd565b9150610da1826113ab565b604082019050919050565b6000610db96000836110b1565b9150610dc4826113fa565b600082019050919050565b6000610ddc602b836110cd565b9150610de7826113fd565b604082019050919050565b6000606083016000830151610e0a6000860182610c61565b5060208301518482036020860152610e228282610cf4565b9150506040830151610e376040860182610e42565b508091505092915050565b610e4b81611166565b82525050565b610e5a81611166565b82525050565b6000610e6b82610dac565b9150819050919050565b60006020820190508181036000830152610e8f8184610c7f565b905092915050565b60006020820190508181036000830152610eb18184610d2d565b905092915050565b60006060820190508181036000830152610ed38186610d2d565b9050610ee26020830185610c70565b8181036040830152610ef48184610d2d565b9050949350505050565b60006060820190508181036000830152610f188186610d2d565b9050610f276020830185610c70565b610f346040830184610e51565b949350505050565b60006040820190508181036000830152610f568185610d2d565b9050610f656020830184610e51565b9392505050565b60006020820190508181036000830152610f8581610d66565b9050919050565b60006020820190508181036000830152610fa581610d89565b9050919050565b60006020820190508181036000830152610fc581610dcf565b9050919050565b6000602082019050610fe16000830184610e51565b92915050565b6000604082019050610ffc6000830185610e51565b818103602083015261100e8184610d2d565b90509392505050565b6000611021611032565b905061102d82826111e4565b919050565b6000604051905090565b600067ffffffffffffffff8211156110575761105661131c565b5b6110608261134b565b9050602081019050919050565b6000819050602082019050919050565b600081519050919050565b600081519050919050565b6000602082019050919050565b600082825260208201905092915050565b600081905092915050565b600082825260208201905092915050565b600082825260208201905092915050565b60006110e982611166565b91506110f483611166565b9250827fffffffffffffffffffffffffffffffffffffffffffffffffffffffffffffffff038211156111295761112861128f565b5b828201905092915050565b600061113f82611146565b9050919050565b600073ffffffffffffffffffffffffffffffffffffffff82169050919050565b6000819050919050565b82818337600083830152505050565b60005b8381101561119d578082015181840152602081019050611182565b838111156111ac576000848401525b50505050565b600060028204905060018216806111ca57607f821691505b602082108114156111de576111dd6112ed565b5b50919050565b6111ed8261134b565b810181811067ffffffffffffffff8211171561120c5761120b61131c565b5b80604052505050565b600061122082611166565b91507fffffffffffffffffffffffffffffffffffffffffffffffffffffffffffffffff8214156112535761125261128f565b5b600182019050919050565b600061126982611166565b915061127483611166565b925082611284576112836112be565b5b828206905092915050565b7f4e487b7100000000000000000000000000000000000000000000000000000000600052601160045260246000fd5b7f4e487b7100000000000000000000000000000000000000000000000000000000600052601260045260246000fd5b7f4e487b7100000000000000000000000000000000000000000000000000000000600052602260045260246000fd5b7f4e487b7100000000000000000000000000000000000000000000000000000000600052604160045260246000fd5b6000601f19601f8301169050919050565b7f596f752063616e2774206d616b6520612077697368206d6f7265207468616e2060008201527f6f6e6365206576657279203135206d696e757465732100000000000000000000602082015250565b7f4661696c656420746f207769746864726177206d6f6e65792066726f6d20636f60008201527f6e74726163742e00000000000000000000000000000000000000000000000000602082015250565b50565b7f596f7520646f6e2774206861766520656e6f75676820657468657220746f207360008201527f656e642061207769736821000000000000000000000000000000000000000000602082015250565b61145581611134565b811461146057600080fd5b5056fea264697066735822122071489fc89d320382dbad78ce7c437d17c9f18044e90322a0b89991dc4fefb1bf64736f6c634300080400334865792c2049276d2074686520736d61727420636f6e7472616374206f66207468652077616c6c206f662077697368657321",
  "linkReferences": {},
  "deployedLinkReferences": {}
}