{
  "_format": "hh-sol-artifact-1",
  "contractName": "WishesWall",
  "sourceName": "contracts/WishesWall.sol",
  "abi": [
    {
      "inputs": [],
      "stateMutability": "payable",
      "type": "constructor"
    },
    {
      "anonymous": false,
      "inputs": [
        {
          "indexed": true,
          "internalType": "address",
          "name": "from",
          "type": "address"
        },
        {
          "indexed": false,
          "internalType": "uint32",
          "name": "timestamp",
          "type": "uint32"
        },
        {
          "indexed": false,
          "internalType": "uint8",
          "name": "vote",
          "type": "uint8"
        }
      ],
      "name": "NewVote",
      "type": "event"
    },
    {
      "anonymous": false,
      "inputs": [
        {
          "indexed": false,
          "internalType": "uint32",
          "name": "id",
          "type": "uint32"
        },
        {
          "indexed": true,
          "internalType": "address",
          "name": "from",
          "type": "address"
        },
        {
          "indexed": false,
          "internalType": "uint32",
          "name": "timestamp",
          "type": "uint32"
        },
        {
          "indexed": false,
          "internalType": "string",
          "name": "message",
          "type": "string"
        }
      ],
      "name": "NewWish",
      "type": "event"
    },
    {
      "inputs": [],
      "name": "getAllWishes",
      "outputs": [
        {
          "components": [
            {
              "internalType": "address",
              "name": "owner",
              "type": "address"
            },
            {
              "internalType": "string",
              "name": "message",
              "type": "string"
            },
            {
              "internalType": "uint32",
              "name": "timestamp",
              "type": "uint32"
            },
            {
              "internalType": "uint32",
              "name": "voteSum",
              "type": "uint32"
            },
            {
              "internalType": "uint16",
              "name": "voteCount",
              "type": "uint16"
            }
          ],
          "internalType": "struct WishesWall.Wish[]",
          "name": "",
          "type": "tuple[]"
        }
      ],
      "stateMutability": "view",
      "type": "function"
    },
    {
      "inputs": [],
      "name": "getAverageRating",
      "outputs": [
        {
          "internalType": "uint8",
          "name": "",
          "type": "uint8"
        }
      ],
      "stateMutability": "view",
      "type": "function"
    },
    {
      "inputs": [
        {
          "internalType": "uint32",
          "name": "_wishId",
          "type": "uint32"
        }
      ],
      "name": "getAverageRatingOfWish",
      "outputs": [
        {
          "internalType": "uint8",
          "name": "",
          "type": "uint8"
        }
      ],
      "stateMutability": "view",
      "type": "function"
    },
    {
      "inputs": [],
      "name": "getTotalVotes",
      "outputs": [
        {
          "internalType": "uint32",
          "name": "",
          "type": "uint32"
        }
      ],
      "stateMutability": "view",
      "type": "function"
    },
    {
      "inputs": [
        {
          "internalType": "uint32",
          "name": "_wishId",
          "type": "uint32"
        }
      ],
      "name": "getTotalVotesOfWish",
      "outputs": [
        {
          "internalType": "uint16",
          "name": "",
          "type": "uint16"
        }
      ],
      "stateMutability": "view",
      "type": "function"
    },
    {
      "inputs": [],
      "name": "getTotalWishes",
      "outputs": [
        {
          "internalType": "uint32",
          "name": "",
          "type": "uint32"
        }
      ],
      "stateMutability": "view",
      "type": "function"
    },
    {
      "inputs": [
        {
          "internalType": "address",
          "name": "",
          "type": "address"
        }
      ],
      "name": "lastWishAt",
      "outputs": [
        {
          "internalType": "uint32",
          "name": "",
          "type": "uint32"
        }
      ],
      "stateMutability": "view",
      "type": "function"
    },
    {
      "inputs": [
        {
          "internalType": "uint32",
          "name": "_wishId",
          "type": "uint32"
        },
        {
          "internalType": "uint8",
          "name": "_rate",
          "type": "uint8"
        }
      ],
      "name": "vote",
      "outputs": [],
      "stateMutability": "nonpayable",
      "type": "function"
    },
    {
      "inputs": [
        {
          "internalType": "uint32",
          "name": "",
          "type": "uint32"
        }
      ],
      "name": "voters",
      "outputs": [
        {
          "internalType": "address",
          "name": "",
          "type": "address"
        }
      ],
      "stateMutability": "view",
      "type": "function"
    },
    {
      "inputs": [
        {
          "internalType": "string",
          "name": "_message",
          "type": "string"
        }
      ],
      "name": "wish",
      "outputs": [],
      "stateMutability": "nonpayable",
      "type": "function"
    }
  ],
  "bytecode": "0x608060405262000033604051806060016040528060328152602001620027a2603291396200005b60201b620011b01760201c565b60644442620000439190620001a8565b6200004f919062000245565b600281905550620002ec565b620000fb8160405160240162000072919062000168565b6040516020818303038152906040527f41304fac000000000000000000000000000000000000000000000000000000007bffffffffffffffffffffffffffffffffffffffffffffffffffffffff19166020820180517bffffffffffffffffffffffffffffffffffffffffffffffffffffffff8381831617835250505050620000fe60201b60201c565b50565b60008151905060006a636f6e736f6c652e6c6f679050602083016000808483855afa5050505050565b600062000134826200018c565b62000140818562000197565b9350620001528185602086016200020f565b6200015d81620002db565b840191505092915050565b6000602082019050818103600083015262000184818462000127565b905092915050565b600081519050919050565b600082825260208201905092915050565b6000620001b58262000205565b9150620001c28362000205565b9250827fffffffffffffffffffffffffffffffffffffffffffffffffffffffffffffffff03821115620001fa57620001f96200027d565b5b828201905092915050565b6000819050919050565b60005b838110156200022f57808201518184015260208101905062000212565b838111156200023f576000848401525b50505050565b6000620002528262000205565b91506200025f8362000205565b925082620002725762000271620002ac565b5b828206905092915050565b7f4e487b7100000000000000000000000000000000000000000000000000000000600052601160045260246000fd5b7f4e487b7100000000000000000000000000000000000000000000000000000000600052601260045260246000fd5b6000601f19601f8301169050919050565b6124a680620002fc6000396000f3fe608060405234801561001057600080fd5b506004361061009e5760003560e01c80638da162e1116100665780638da162e1146101815780639767fb721461019d5780639a0e7d66146101b9578063af0b9f1a146101d7578063b523fc18146101f55761009e565b80632d5bdf9c146100a3578063314038b8146100d3578063639d9520146101035780636ca9c8061461013357806370f6e4cf14610163575b600080fd5b6100bd60048036038101906100b891906117e3565b610213565b6040516100ca9190611da7565b60405180910390f35b6100ed60048036038101906100e891906117e3565b610325565b6040516100fa9190611b18565b60405180910390f35b61011d60048036038101906101189190611779565b610358565b60405161012a9190611dc2565b60405180910390f35b61014d600480360381019061014891906117e3565b61037b565b60405161015a9190611e44565b60405180910390f35b61016b610454565b6040516101789190611e44565b60405180910390f35b61019b600480360381019061019691906117a2565b610529565b005b6101b760048036038101906101b2919061180c565b61085c565b005b6101c1610d6c565b6040516101ce9190611dc2565b60405180910390f35b6101df610ddd565b6040516101ec9190611b33565b60405180910390f35b6101fd611143565b60405161020a9190611dc2565b60405180910390f35b60006102be6040518060400160405280601981526020017f5769736820256420726563656976656420256420766f746573000000000000008152508363ffffffff1660018563ffffffff1681548110610295577f4e487b7100000000000000000000000000000000000000000000000000000000600052603260045260246000fd5b906000526020600020906003020160020160089054906101000a900461ffff1661ffff16611249565b60018263ffffffff16815481106102fe577f4e487b7100000000000000000000000000000000000000000000000000000000600052603260045260246000fd5b906000526020600020906003020160020160089054906101000a900461ffff169050919050565b60056020528060005260406000206000915054906101000a900473ffffffffffffffffffffffffffffffffffffffff1681565b60036020528060005260406000206000915054906101000a900463ffffffff1681565b600060018263ffffffff16815481106103bd577f4e487b7100000000000000000000000000000000000000000000000000000000600052603260045260246000fd5b906000526020600020906003020160020160089054906101000a900461ffff1661ffff1660018363ffffffff1681548110610421577f4e487b7100000000000000000000000000000000000000000000000000000000600052603260045260246000fd5b906000526020600020906003020160020160049054906101000a900463ffffffff1661044d9190611fe7565b9050919050565b6000806000905060005b60008054906101000a900463ffffffff1663ffffffff168110156104fe57600181815481106104b6577f4e487b7100000000000000000000000000000000000000000000000000000000600052603260045260246000fd5b906000526020600020906003020160020160049054906101000a900463ffffffff1663ffffffff16826104e99190611f26565b915080806104f69061214f565b91505061045e565b50600460009054906101000a900463ffffffff1663ffffffff16816105239190611fb6565b91505090565b42610384600360003373ffffffffffffffffffffffffffffffffffffffff1673ffffffffffffffffffffffffffffffffffffffff16815260200190815260200160002060009054906101000a900463ffffffff166105879190611f7c565b63ffffffff16106105cd576040517f08c379a00000000000000000000000000000000000000000000000000000000081526004016105c490611d07565b60405180910390fd5b42600360003373ffffffffffffffffffffffffffffffffffffffff1673ffffffffffffffffffffffffffffffffffffffff16815260200190815260200160002060006101000a81548163ffffffff021916908363ffffffff160217905550600080600081819054906101000a900463ffffffff168092919061064e90612198565b91906101000a81548163ffffffff021916908363ffffffff16021790555090506106b56040518060400160405280601d81526020017f2573206861732073656e7420612077697368205b25645d202725732720000000815250338363ffffffff16856112e8565b60016040518060a001604052803373ffffffffffffffffffffffffffffffffffffffff1681526020018481526020014263ffffffff168152602001600063ffffffff168152602001600061ffff16815250908060018154018082558091505060019003906000526020600020906003020160009091909190915060008201518160000160006101000a81548173ffffffffffffffffffffffffffffffffffffffff021916908373ffffffffffffffffffffffffffffffffffffffff160217905550602082015181600101908051906020019061079292919061162f565b5060408201518160020160006101000a81548163ffffffff021916908363ffffffff16021790555060608201518160020160046101000a81548163ffffffff021916908363ffffffff16021790555060808201518160020160086101000a81548161ffff021916908361ffff16021790555050503373ffffffffffffffffffffffffffffffffffffffff167fa2ea9590be71f3b93959ef88572dba96e681b1eca60778d14afce4658825d89182428560405161085093929190611ddd565b60405180910390a25050565b8060ff16600011158015610874575060058160ff1611155b6108b3576040517f08c379a00000000000000000000000000000000000000000000000000000000081526004016108aa90611d67565b60405180910390fd5b3373ffffffffffffffffffffffffffffffffffffffff16600560008463ffffffff1663ffffffff16815260200190815260200160002060009054906101000a900473ffffffffffffffffffffffffffffffffffffffff1673ffffffffffffffffffffffffffffffffffffffff161415610961576040517f08c379a000000000000000000000000000000000000000000000000000000000815260040161095890611d27565b60405180910390fd5b8060ff1660018363ffffffff16815481106109a5577f4e487b7100000000000000000000000000000000000000000000000000000000600052603260045260246000fd5b906000526020600020906003020160020160048282829054906101000a900463ffffffff166109d49190611f7c565b92506101000a81548163ffffffff021916908363ffffffff16021790555060018263ffffffff1681548110610a32577f4e487b7100000000000000000000000000000000000000000000000000000000600052603260045260246000fd5b9060005260206000209060030201600201600881819054906101000a900461ffff1680929190610a6190612124565b91906101000a81548161ffff021916908361ffff160217905550506004600081819054906101000a900463ffffffff1680929190610a9e90612198565b91906101000a81548163ffffffff021916908363ffffffff1602179055505033600560008463ffffffff1663ffffffff16815260200190815260200160002060006101000a81548173ffffffffffffffffffffffffffffffffffffffff021916908373ffffffffffffffffffffffffffffffffffffffff160217905550610b656040518060400160405280601b81526020017f25732068617320766f74656420256420666f7220776973682025640000000000815250338360ff168563ffffffff1661138a565b60644442600254610b769190611f26565b610b809190611f26565b610b8a91906121c5565b600281905550610bd16040518060400160405280601681526020017f52616e646f6d20232067656e6572617465643a2025640000000000000000000081525060025461142c565b603260025411610d185760006509184e72a000905047811115610c29576040517f08c379a0000000000000000000000000000000000000000000000000000000008152600401610c2090611d87565b60405180910390fd5b60003373ffffffffffffffffffffffffffffffffffffffff1682604051610c4f90611b03565b60006040518083038185875af1925050503d8060008114610c8c576040519150601f19603f3d011682016040523d82523d6000602084013e610c91565b606091505b5050905080610cd5576040517f08c379a0000000000000000000000000000000000000000000000000000000008152600401610ccc90611d47565b60405180910390fd5b610d156040518060400160405280601481526020017f25732068617320776f6e2025642065746865722100000000000000000000000081525033846114c8565b50505b3373ffffffffffffffffffffffffffffffffffffffff167f7598e9bfbe928d0d811b9fc9a3b9ec74a25bf32025b09330191f5d7bf18ec8ec4283604051610d60929190611e1b565b60405180910390a25050565b6000610dc56040518060400160405280601581526020017f576527766520256420746f74616c20766f746573210000000000000000000000815250600460009054906101000a900463ffffffff1663ffffffff1661142c565b600460009054906101000a900463ffffffff16905090565b606060005b60008054906101000a900463ffffffff1663ffffffff16811015610f9157610f7e6040518060400160405280600d81526020017f2573207769736865733a2025730000000000000000000000000000000000000081525060018381548110610e73577f4e487b7100000000000000000000000000000000000000000000000000000000600052603260045260246000fd5b906000526020600020906003020160000160009054906101000a900473ffffffffffffffffffffffffffffffffffffffff1660018481548110610edf577f4e487b7100000000000000000000000000000000000000000000000000000000600052603260045260246000fd5b90600052602060002090600302016001018054610efb906120c1565b80601f0160208091040260200160405190810160405280929190818152602001828054610f27906120c1565b8015610f745780601f10610f4957610100808354040283529160200191610f74565b820191906000526020600020905b815481529060010190602001808311610f5757829003601f168201915b5050505050611567565b8080610f899061214f565b915050610de2565b506001805480602002602001604051908101604052809291908181526020016000905b8282101561113a57838290600052602060002090600302016040518060a00160405290816000820160009054906101000a900473ffffffffffffffffffffffffffffffffffffffff1673ffffffffffffffffffffffffffffffffffffffff1673ffffffffffffffffffffffffffffffffffffffff16815260200160018201805461103d906120c1565b80601f0160208091040260200160405190810160405280929190818152602001828054611069906120c1565b80156110b65780601f1061108b576101008083540402835291602001916110b6565b820191906000526020600020905b81548152906001019060200180831161109957829003601f168201915b505050505081526020016002820160009054906101000a900463ffffffff1663ffffffff1663ffffffff1681526020016002820160049054906101000a900463ffffffff1663ffffffff1663ffffffff1681526020016002820160089054906101000a900461ffff1661ffff1661ffff168152505081526020019060010190610fb4565b50505050905090565b600061119a6040518060400160405280601681526020017f576527766520256420746f74616c20776973686573210000000000000000000081525060008054906101000a900463ffffffff1663ffffffff1661142c565b60008054906101000a900463ffffffff16905090565b611246816040516024016111c49190611b55565b6040516020818303038152906040527f41304fac000000000000000000000000000000000000000000000000000000007bffffffffffffffffffffffffffffffffffffffffffffffffffffffff19166020820180517bffffffffffffffffffffffffffffffffffffffffffffffffffffffff8381831617835250505050611606565b50565b6112e383838360405160240161126193929190611cc9565b6040516020818303038152906040527f969cdd03000000000000000000000000000000000000000000000000000000007bffffffffffffffffffffffffffffffffffffffffffffffffffffffff19166020820180517bffffffffffffffffffffffffffffffffffffffffffffffffffffffff8381831617835250505050611606565b505050565b611384848484846040516024016113029493929190611bfa565b6040516020818303038152906040527f4c55f234000000000000000000000000000000000000000000000000000000007bffffffffffffffffffffffffffffffffffffffffffffffffffffffff19166020820180517bffffffffffffffffffffffffffffffffffffffffffffffffffffffff8381831617835250505050611606565b50505050565b611426848484846040516024016113a49493929190611c4d565b6040516020818303038152906040527fdaa394bd000000000000000000000000000000000000000000000000000000007bffffffffffffffffffffffffffffffffffffffffffffffffffffffff19166020820180517bffffffffffffffffffffffffffffffffffffffffffffffffffffffff8381831617835250505050611606565b50505050565b6114c48282604051602401611442929190611c99565b6040516020818303038152906040527f9710a9d0000000000000000000000000000000000000000000000000000000007bffffffffffffffffffffffffffffffffffffffffffffffffffffffff19166020820180517bffffffffffffffffffffffffffffffffffffffffffffffffffffffff8381831617835250505050611606565b5050565b6115628383836040516024016114e093929190611bbc565b6040516020818303038152906040527f07c81217000000000000000000000000000000000000000000000000000000007bffffffffffffffffffffffffffffffffffffffffffffffffffffffff19166020820180517bffffffffffffffffffffffffffffffffffffffffffffffffffffffff8381831617835250505050611606565b505050565b61160183838360405160240161157f93929190611b77565b6040516020818303038152906040527fe0e9ad4f000000000000000000000000000000000000000000000000000000007bffffffffffffffffffffffffffffffffffffffffffffffffffffffff19166020820180517bffffffffffffffffffffffffffffffffffffffffffffffffffffffff8381831617835250505050611606565b505050565b60008151905060006a636f6e736f6c652e6c6f679050602083016000808483855afa5050505050565b82805461163b906120c1565b90600052602060002090601f01602090048101928261165d57600085556116a4565b82601f1061167657805160ff19168380011785556116a4565b828001600101855582156116a4579182015b828111156116a3578251825591602001919060010190611688565b5b5090506116b191906116b5565b5090565b5b808211156116ce5760008160009055506001016116b6565b5090565b60006116e56116e084611e84565b611e5f565b9050828152602081018484840111156116fd57600080fd5b61170884828561207f565b509392505050565b60008135905061171f8161242b565b92915050565b600082601f83011261173657600080fd5b81356117468482602086016116d2565b91505092915050565b60008135905061175e81612442565b92915050565b60008135905061177381612459565b92915050565b60006020828403121561178b57600080fd5b600061179984828501611710565b91505092915050565b6000602082840312156117b457600080fd5b600082013567ffffffffffffffff8111156117ce57600080fd5b6117da84828501611725565b91505092915050565b6000602082840312156117f557600080fd5b60006118038482850161174f565b91505092915050565b6000806040838503121561181f57600080fd5b600061182d8582860161174f565b925050602061183e85828601611764565b9150509250929050565b60006118548383611a33565b905092915050565b61186581612018565b82525050565b61187481612018565b82525050565b600061188582611ec5565b61188f8185611ee8565b9350836020820285016118a185611eb5565b8060005b858110156118dd57848403895281516118be8582611848565b94506118c983611edb565b925060208a019950506001810190506118a5565b50829750879550505050505092915050565b60006118fa82611ed0565b6119048185611f04565b935061191481856020860161208e565b61191d816122b2565b840191505092915050565b600061193382611ed0565b61193d8185611f15565b935061194d81856020860161208e565b611956816122b2565b840191505092915050565b600061196e603683611f15565b9150611979826122c3565b604082019050919050565b6000611991602783611f15565b915061199c82612312565b604082019050919050565b60006119b4602783611f15565b91506119bf82612361565b604082019050919050565b60006119d7601d83611f15565b91506119e2826123b0565b602082019050919050565b60006119fa603083611f15565b9150611a05826123d9565b604082019050919050565b6000611a1d600083611ef9565b9150611a2882612428565b600082019050919050565b600060a083016000830151611a4b600086018261185c565b5060208301518482036020860152611a6382826118ef565b9150506040830151611a786040860182611ad6565b506060830151611a8b6060860182611ad6565b506080830151611a9e6080860182611aa9565b508091505092915050565b611ab28161202a565b82525050565b611ac18161202a565b82525050565b611ad081612058565b82525050565b611adf81612062565b82525050565b611aee81612062565b82525050565b611afd81612072565b82525050565b6000611b0e82611a10565b9150819050919050565b6000602082019050611b2d600083018461186b565b92915050565b60006020820190508181036000830152611b4d818461187a565b905092915050565b60006020820190508181036000830152611b6f8184611928565b905092915050565b60006060820190508181036000830152611b918186611928565b9050611ba0602083018561186b565b8181036040830152611bb28184611928565b9050949350505050565b60006060820190508181036000830152611bd68186611928565b9050611be5602083018561186b565b611bf26040830184611ac7565b949350505050565b60006080820190508181036000830152611c148187611928565b9050611c23602083018661186b565b611c306040830185611ac7565b8181036060830152611c428184611928565b905095945050505050565b60006080820190508181036000830152611c678187611928565b9050611c76602083018661186b565b611c836040830185611ac7565b611c906060830184611ac7565b95945050505050565b60006040820190508181036000830152611cb38185611928565b9050611cc26020830184611ac7565b9392505050565b60006060820190508181036000830152611ce38186611928565b9050611cf26020830185611ac7565b611cff6040830184611ac7565b949350505050565b60006020820190508181036000830152611d2081611961565b9050919050565b60006020820190508181036000830152611d4081611984565b9050919050565b60006020820190508181036000830152611d60816119a7565b9050919050565b60006020820190508181036000830152611d80816119ca565b9050919050565b60006020820190508181036000830152611da0816119ed565b9050919050565b6000602082019050611dbc6000830184611ab8565b92915050565b6000602082019050611dd76000830184611ae5565b92915050565b6000606082019050611df26000830186611ae5565b611dff6020830185611ae5565b8181036040830152611e118184611928565b9050949350505050565b6000604082019050611e306000830185611ae5565b611e3d6020830184611af4565b9392505050565b6000602082019050611e596000830184611af4565b92915050565b6000611e69611e7a565b9050611e7582826120f3565b919050565b6000604051905090565b600067ffffffffffffffff821115611e9f57611e9e612283565b5b611ea8826122b2565b9050602081019050919050565b6000819050602082019050919050565b600081519050919050565b600081519050919050565b6000602082019050919050565b600082825260208201905092915050565b600081905092915050565b600082825260208201905092915050565b600082825260208201905092915050565b6000611f3182612058565b9150611f3c83612058565b9250827fffffffffffffffffffffffffffffffffffffffffffffffffffffffffffffffff03821115611f7157611f706121f6565b5b828201905092915050565b6000611f8782612062565b9150611f9283612062565b92508263ffffffff03821115611fab57611faa6121f6565b5b828201905092915050565b6000611fc182612058565b9150611fcc83612058565b925082611fdc57611fdb612225565b5b828204905092915050565b6000611ff282612062565b9150611ffd83612062565b92508261200d5761200c612225565b5b828204905092915050565b600061202382612038565b9050919050565b600061ffff82169050919050565b600073ffffffffffffffffffffffffffffffffffffffff82169050919050565b6000819050919050565b600063ffffffff82169050919050565b600060ff82169050919050565b82818337600083830152505050565b60005b838110156120ac578082015181840152602081019050612091565b838111156120bb576000848401525b50505050565b600060028204905060018216806120d957607f821691505b602082108114156120ed576120ec612254565b5b50919050565b6120fc826122b2565b810181811067ffffffffffffffff8211171561211b5761211a612283565b5b80604052505050565b600061212f8261202a565b915061ffff821415612144576121436121f6565b5b600182019050919050565b600061215a82612058565b91507fffffffffffffffffffffffffffffffffffffffffffffffffffffffffffffffff82141561218d5761218c6121f6565b5b600182019050919050565b60006121a382612062565b915063ffffffff8214156121ba576121b96121f6565b5b600182019050919050565b60006121d082612058565b91506121db83612058565b9250826121eb576121ea612225565b5b828206905092915050565b7f4e487b7100000000000000000000000000000000000000000000000000000000600052601160045260246000fd5b7f4e487b7100000000000000000000000000000000000000000000000000000000600052601260045260246000fd5b7f4e487b7100000000000000000000000000000000000000000000000000000000600052602260045260246000fd5b7f4e487b7100000000000000000000000000000000000000000000000000000000600052604160045260246000fd5b6000601f19601f8301169050919050565b7f596f752063616e2774206d616b6520612077697368206d6f7265207468616e2060008201527f6f6e6365206576657279203135206d696e757465732100000000000000000000602082015250565b7f596f752063616e277420766f746520747769636520666f72207468652073616d60008201527f6520776973682100000000000000000000000000000000000000000000000000602082015250565b7f4661696c656420746f207769746864726177206d6f6e65792066726f6d20636f60008201527f6e74726163742e00000000000000000000000000000000000000000000000000602082015250565b7f52617465206d757374206265206265747765656e203020616e64203521000000600082015250565b7f436f6e747261637420646f6e2774206861766520656e6f75676820657468657260008201527f20746f2073656e64206120776973682100000000000000000000000000000000602082015250565b50565b61243481612018565b811461243f57600080fd5b50565b61244b81612062565b811461245657600080fd5b50565b61246281612072565b811461246d57600080fd5b5056fea2646970667358221220163c43582a1d108c2057dff4d543f17f1cd30efbb987b9cca0608cdfdadb64f864736f6c634300080400334865792c2049276d2074686520736d61727420636f6e7472616374206f66207468652077616c6c206f662077697368657321",
  "linkReferences": {},
  "deployedLinkReferences": {}
}