{
  "_format": "hh-sol-artifact-1",
  "contractName": "WishesWall",
  "sourceName": "contracts/WishesWall.sol",
  "abi": [
    {
      "inputs": [],
      "stateMutability": "payable",
      "type": "constructor"
    },
    {
      "anonymous": false,
      "inputs": [
        {
          "indexed": false,
          "internalType": "uint32",
          "name": "wishId",
          "type": "uint32"
        },
        {
          "indexed": true,
          "internalType": "address",
          "name": "from",
          "type": "address"
        },
        {
          "indexed": false,
          "internalType": "uint32",
          "name": "timestamp",
          "type": "uint32"
        },
        {
          "indexed": false,
          "internalType": "uint8",
          "name": "vote",
          "type": "uint8"
        }
      ],
      "name": "NewVote",
      "type": "event"
    },
    {
      "anonymous": false,
      "inputs": [
        {
          "indexed": false,
          "internalType": "uint32",
          "name": "id",
          "type": "uint32"
        },
        {
          "indexed": true,
          "internalType": "address",
          "name": "from",
          "type": "address"
        },
        {
          "indexed": false,
          "internalType": "uint32",
          "name": "timestamp",
          "type": "uint32"
        },
        {
          "indexed": false,
          "internalType": "string",
          "name": "message",
          "type": "string"
        }
      ],
      "name": "NewWish",
      "type": "event"
    },
    {
      "anonymous": false,
      "inputs": [
        {
          "indexed": true,
          "internalType": "address",
          "name": "previousOwner",
          "type": "address"
        },
        {
          "indexed": true,
          "internalType": "address",
          "name": "newOwner",
          "type": "address"
        }
      ],
      "name": "OwnershipTransferred",
      "type": "event"
    },
    {
      "inputs": [],
      "name": "getAllWishes",
      "outputs": [
        {
          "components": [
            {
              "internalType": "address",
              "name": "owner",
              "type": "address"
            },
            {
              "internalType": "string",
              "name": "message",
              "type": "string"
            },
            {
              "internalType": "uint32",
              "name": "timestamp",
              "type": "uint32"
            },
            {
              "internalType": "uint32",
              "name": "voteSum",
              "type": "uint32"
            },
            {
              "internalType": "uint16",
              "name": "voteCount",
              "type": "uint16"
            }
          ],
          "internalType": "struct WishesWall.Wish[]",
          "name": "",
          "type": "tuple[]"
        }
      ],
      "stateMutability": "view",
      "type": "function"
    },
    {
      "inputs": [],
      "name": "getAverageRating",
      "outputs": [
        {
          "internalType": "uint8",
          "name": "",
          "type": "uint8"
        }
      ],
      "stateMutability": "view",
      "type": "function"
    },
    {
      "inputs": [
        {
          "internalType": "uint32",
          "name": "_wishId",
          "type": "uint32"
        }
      ],
      "name": "getAverageRatingOfWish",
      "outputs": [
        {
          "internalType": "uint8",
          "name": "",
          "type": "uint8"
        }
      ],
      "stateMutability": "view",
      "type": "function"
    },
    {
      "inputs": [],
      "name": "getTotalVotes",
      "outputs": [
        {
          "internalType": "uint32",
          "name": "",
          "type": "uint32"
        }
      ],
      "stateMutability": "view",
      "type": "function"
    },
    {
      "inputs": [
        {
          "internalType": "uint32",
          "name": "_wishId",
          "type": "uint32"
        }
      ],
      "name": "getTotalVotesOfWish",
      "outputs": [
        {
          "internalType": "uint16",
          "name": "",
          "type": "uint16"
        }
      ],
      "stateMutability": "view",
      "type": "function"
    },
    {
      "inputs": [],
      "name": "getTotalWishes",
      "outputs": [
        {
          "internalType": "uint32",
          "name": "",
          "type": "uint32"
        }
      ],
      "stateMutability": "view",
      "type": "function"
    },
    {
      "inputs": [
        {
          "internalType": "address",
          "name": "",
          "type": "address"
        }
      ],
      "name": "lastWishAt",
      "outputs": [
        {
          "internalType": "uint32",
          "name": "",
          "type": "uint32"
        }
      ],
      "stateMutability": "view",
      "type": "function"
    },
    {
      "inputs": [],
      "name": "owner",
      "outputs": [
        {
          "internalType": "address",
          "name": "",
          "type": "address"
        }
      ],
      "stateMutability": "view",
      "type": "function"
    },
    {
      "inputs": [],
      "name": "renounceOwnership",
      "outputs": [],
      "stateMutability": "nonpayable",
      "type": "function"
    },
    {
      "inputs": [
        {
          "internalType": "uint256",
          "name": "_valueSet",
          "type": "uint256"
        }
      ],
      "name": "setBonusInWei",
      "outputs": [],
      "stateMutability": "nonpayable",
      "type": "function"
    },
    {
      "inputs": [
        {
          "internalType": "uint8",
          "name": "_valueSet",
          "type": "uint8"
        }
      ],
      "name": "setBonusThresholdPercent",
      "outputs": [],
      "stateMutability": "nonpayable",
      "type": "function"
    },
    {
      "inputs": [
        {
          "internalType": "uint8",
          "name": "_valueSet",
          "type": "uint8"
        }
      ],
      "name": "setBonusVoteThreshold",
      "outputs": [],
      "stateMutability": "nonpayable",
      "type": "function"
    },
    {
      "inputs": [
        {
          "internalType": "uint32",
          "name": "_valueSet",
          "type": "uint32"
        }
      ],
      "name": "setSecAfterWhenSendNewWish",
      "outputs": [],
      "stateMutability": "nonpayable",
      "type": "function"
    },
    {
      "inputs": [
        {
          "internalType": "uint8",
          "name": "_valueSet",
          "type": "uint8"
        }
      ],
      "name": "setVoteThreshold",
      "outputs": [],
      "stateMutability": "nonpayable",
      "type": "function"
    },
    {
      "inputs": [
        {
          "internalType": "address",
          "name": "newOwner",
          "type": "address"
        }
      ],
      "name": "transferOwnership",
      "outputs": [],
      "stateMutability": "nonpayable",
      "type": "function"
    },
    {
      "inputs": [
        {
          "internalType": "uint32",
          "name": "_wishId",
          "type": "uint32"
        },
        {
          "internalType": "uint8",
          "name": "_rate",
          "type": "uint8"
        }
      ],
      "name": "vote",
      "outputs": [],
      "stateMutability": "payable",
      "type": "function"
    },
    {
      "inputs": [
        {
          "internalType": "uint32",
          "name": "",
          "type": "uint32"
        }
      ],
      "name": "voters",
      "outputs": [
        {
          "internalType": "address",
          "name": "",
          "type": "address"
        }
      ],
      "stateMutability": "view",
      "type": "function"
    },
    {
      "inputs": [
        {
          "internalType": "string",
          "name": "_message",
          "type": "string"
        }
      ],
      "name": "wish",
      "outputs": [],
      "stateMutability": "nonpayable",
      "type": "function"
    }
  ],
  "bytecode": "0x60806040526200002462000018620000f260201b60201c565b620000fa60201b60201c565b6200005360405180606001604052806032815260200162003c9f60329139620001be60201b62001c611760201c565b610384600560006101000a81548163ffffffff021916908363ffffffff16021790555060058060046101000a81548160ff021916908360ff160217905550620000a16200026160201b60201c565b6006819055506032600760006101000a81548160ff021916908360ff1602179055506003600760016101000a81548160ff021916908360ff1602179055506509184e72a00060088190555062000475565b600033905090565b60008060009054906101000a900473ffffffffffffffffffffffffffffffffffffffff169050816000806101000a81548173ffffffffffffffffffffffffffffffffffffffff021916908373ffffffffffffffffffffffffffffffffffffffff1602179055508173ffffffffffffffffffffffffffffffffffffffff168173ffffffffffffffffffffffffffffffffffffffff167f8be0079c531659141344cd1fd0a4f28419497f9722a3daafe3b4186f6b6457e060405160405180910390a35050565b6200025e81604051602401620001d5919062000373565b6040516020818303038152906040527f41304fac000000000000000000000000000000000000000000000000000000007bffffffffffffffffffffffffffffffffffffffffffffffffffffffff19166020820180517bffffffffffffffffffffffffffffffffffffffffffffffffffffffff8381831617835250505050620002ab60201b60201c565b50565b600060644244600180549050604051602001620002819392919062000330565b6040516020818303038152906040528051906020012060001c620002a69190620003fd565b905090565b60008151905060006a636f6e736f6c652e6c6f679050602083016000808483855afa5050505050565b6000620002e18262000397565b620002ed8185620003a2565b9350620002ff818560208601620003bd565b6200030a8162000464565b840191505092915050565b6200032a6200032482620003b3565b620003f3565b82525050565b60006200033e828662000315565b60208201915062000350828562000315565b60208201915062000362828462000315565b602082019150819050949350505050565b600060208201905081810360008301526200038f8184620002d4565b905092915050565b600081519050919050565b600082825260208201905092915050565b6000819050919050565b60005b83811015620003dd578082015181840152602081019050620003c0565b83811115620003ed576000848401525b50505050565b6000819050919050565b60006200040a82620003b3565b91506200041783620003b3565b9250826200042a576200042962000435565b5b828206905092915050565b7f4e487b7100000000000000000000000000000000000000000000000000000000600052601260045260246000fd5b6000601f19601f8301169050919050565b61381a80620004856000396000f3fe6080604052600436106101095760003560e01c80638da5cb5b11610095578063af0b9f1a11610064578063af0b9f1a1461035a578063b523fc1814610385578063c636e2a1146103b0578063e9a30923146103d9578063f2fde38b1461040257610109565b80638da5cb5b146102bf5780639767fb72146102ea5780639a0e7d6614610306578063a11156851461033157610109565b8063639d9520116100dc578063639d9520146101da5780636ca9c8061461021757806370f6e4cf14610254578063715018a61461027f5780638da162e11461029657610109565b806309e17de51461010e5780632d5bdf9c14610137578063314038b8146101745780633e3c5ece146101b1575b600080fd5b34801561011a57600080fd5b50610135600480360381019061013091906125f6565b61042b565b005b34801561014357600080fd5b5061015e60048036038101906101599190612591565b61051b565b60405161016b9190612e7b565b60405180910390f35b34801561018057600080fd5b5061019b60048036038101906101969190612591565b61062d565b6040516101a89190612b2c565b60405180910390f35b3480156101bd57600080fd5b506101d860048036038101906101d39190612591565b610660565b005b3480156101e657600080fd5b5061020160048036038101906101fc91906124fe565b610700565b60405161020e9190612e96565b60405180910390f35b34801561022357600080fd5b5061023e60048036038101906102399190612591565b610723565b60405161024b9190612f26565b60405180910390f35b34801561026057600080fd5b506102696108a1565b6040516102769190612f26565b60405180910390f35b34801561028b57600080fd5b506102946109c2565b005b3480156102a257600080fd5b506102bd60048036038101906102b89190612527565b610a4a565b005b3480156102cb57600080fd5b506102d4610dd6565b6040516102e19190612b2c565b60405180910390f35b61030460048036038101906102ff91906125ba565b610dff565b005b34801561031257600080fd5b5061031b611476565b6040516103289190612e96565b60405180910390f35b34801561033d57600080fd5b50610358600480360381019061035391906125f6565b6114e7565b005b34801561036657600080fd5b5061036f6115d7565b60405161037c9190612b47565b60405180910390f35b34801561039157600080fd5b5061039a61193f565b6040516103a79190612e96565b60405180910390f35b3480156103bc57600080fd5b506103d760048036038101906103d291906125f6565b6119b0565b005b3480156103e557600080fd5b5061040060048036038101906103fb9190612568565b611aa0565b005b34801561040e57600080fd5b50610429600480360381019061042491906124fe565b611b69565b005b610433611cfa565b73ffffffffffffffffffffffffffffffffffffffff16610451610dd6565b73ffffffffffffffffffffffffffffffffffffffff16146104a7576040517f08c379a000000000000000000000000000000000000000000000000000000000815260040161049e90612dbb565b60405180910390fd5b60008160ff161180156104be575060ff8160ff1611155b6104fd576040517f08c379a00000000000000000000000000000000000000000000000000000000081526004016104f490612dfb565b60405180910390fd5b80600760016101000a81548160ff021916908360ff16021790555050565b60006105c66040518060400160405280601981526020017f5769736820256420726563656976656420256420766f746573000000000000008152508363ffffffff1660018563ffffffff168154811061059d577f4e487b7100000000000000000000000000000000000000000000000000000000600052603260045260246000fd5b906000526020600020906003020160020160089054906101000a900461ffff1661ffff16611d02565b60018263ffffffff1681548110610606577f4e487b7100000000000000000000000000000000000000000000000000000000600052603260045260246000fd5b906000526020600020906003020160020160089054906101000a900461ffff169050919050565b60046020528060005260406000206000915054906101000a900473ffffffffffffffffffffffffffffffffffffffff1681565b610668611cfa565b73ffffffffffffffffffffffffffffffffffffffff16610686610dd6565b73ffffffffffffffffffffffffffffffffffffffff16146106dc576040517f08c379a00000000000000000000000000000000000000000000000000000000081526004016106d390612dbb565b60405180910390fd5b80600560006101000a81548163ffffffff021916908363ffffffff16021790555050565b60026020528060005260406000206000915054906101000a900463ffffffff1681565b60008060018363ffffffff1681548110610766577f4e487b7100000000000000000000000000000000000000000000000000000000600052603260045260246000fd5b906000526020600020906003020160020160089054906101000a900461ffff1661ffff16116107ca576040517f08c379a00000000000000000000000000000000000000000000000000000000081526004016107c190612d3b565b60405180910390fd5b60018263ffffffff168154811061080a577f4e487b7100000000000000000000000000000000000000000000000000000000600052603260045260246000fd5b906000526020600020906003020160020160089054906101000a900461ffff1661ffff1660018363ffffffff168154811061086e577f4e487b7100000000000000000000000000000000000000000000000000000000600052603260045260246000fd5b906000526020600020906003020160020160049054906101000a900463ffffffff1661089a91906130d4565b9050919050565b600080600060149054906101000a900463ffffffff1663ffffffff16116108fd576040517f08c379a00000000000000000000000000000000000000000000000000000000081526004016108f490612e1b565b60405180910390fd5b6000805b600060149054906101000a900463ffffffff1663ffffffff1681101561099d576001818154811061095b577f4e487b7100000000000000000000000000000000000000000000000000000000600052603260045260246000fd5b906000526020600020906003020160020160049054906101000a900463ffffffff16826109889190613069565b9150808061099590613270565b915050610901565b50600360009054906101000a900463ffffffff16816109bc91906130d4565b91505090565b6109ca611cfa565b73ffffffffffffffffffffffffffffffffffffffff166109e8610dd6565b73ffffffffffffffffffffffffffffffffffffffff1614610a3e576040517f08c379a0000000000000000000000000000000000000000000000000000000008152600401610a3590612dbb565b60405180910390fd5b610a486000611da1565b565b6000610a6d600560009054906101000a900463ffffffff1663ffffffff16611e65565b604051602001610a7d9190612a80565b604051602081830303815290604052905042600560009054906101000a900463ffffffff16600260003373ffffffffffffffffffffffffffffffffffffffff1673ffffffffffffffffffffffffffffffffffffffff16815260200190815260200160002060009054906101000a900463ffffffff16610afc9190613069565b63ffffffff16108190610b45576040517f08c379a0000000000000000000000000000000000000000000000000000000008152600401610b3c9190612b69565b60405180910390fd5b5042600260003373ffffffffffffffffffffffffffffffffffffffff1673ffffffffffffffffffffffffffffffffffffffff16815260200190815260200160002060006101000a81548163ffffffff021916908363ffffffff160217905550600080601481819054906101000a900463ffffffff1680929190610bc7906132b9565b91906101000a81548163ffffffff021916908363ffffffff1602179055509050610c2e6040518060400160405280601d81526020017f2573206861732073656e7420612077697368205b25645d202725732720000000815250338363ffffffff1686612012565b60016040518060a001604052803373ffffffffffffffffffffffffffffffffffffffff1681526020018581526020014263ffffffff168152602001600063ffffffff168152602001600061ffff16815250908060018154018082558091505060019003906000526020600020906003020160009091909190915060008201518160000160006101000a81548173ffffffffffffffffffffffffffffffffffffffff021916908373ffffffffffffffffffffffffffffffffffffffff1602179055506020820151816001019080519060200190610d0b92919061239f565b5060408201518160020160006101000a81548163ffffffff021916908363ffffffff16021790555060608201518160020160046101000a81548163ffffffff021916908363ffffffff16021790555060808201518160020160086101000a81548161ffff021916908361ffff16021790555050503373ffffffffffffffffffffffffffffffffffffffff167fa2ea9590be71f3b93959ef88572dba96e681b1eca60778d14afce4658825d891824286604051610dc993929190612eb1565b60405180910390a2505050565b60008060009054906101000a900473ffffffffffffffffffffffffffffffffffffffff16905090565b610e506040518060400160405280601081526020017f30203c3d205f72617465203c3d20256400000000000000000000000000000000815250600560049054906101000a900460ff1660ff166120b4565b6000610e6d600560049054906101000a900460ff1660ff16611e65565b604051602001610e7d9190612aad565b60405160208183030381529060405290508160ff16600011158015610eb75750600560049054906101000a900460ff1660ff168260ff1611155b8190610ef9576040517f08c379a0000000000000000000000000000000000000000000000000000000008152600401610ef09190612b69565b60405180910390fd5b503373ffffffffffffffffffffffffffffffffffffffff16600460008563ffffffff1663ffffffff16815260200190815260200160002060009054906101000a900473ffffffffffffffffffffffffffffffffffffffff1673ffffffffffffffffffffffffffffffffffffffff161415610fa8576040517f08c379a0000000000000000000000000000000000000000000000000000000008152600401610f9f90612d5b565b60405180910390fd5b8160ff1660018463ffffffff1681548110610fec577f4e487b7100000000000000000000000000000000000000000000000000000000600052603260045260246000fd5b906000526020600020906003020160020160048282829054906101000a900463ffffffff1661101b9190613069565b92506101000a81548163ffffffff021916908363ffffffff16021790555060018363ffffffff1681548110611079577f4e487b7100000000000000000000000000000000000000000000000000000000600052603260045260246000fd5b9060005260206000209060030201600201600881819054906101000a900461ffff16809291906110a890613245565b91906101000a81548161ffff021916908361ffff160217905550506003600081819054906101000a900463ffffffff16809291906110e5906132b9565b91906101000a81548163ffffffff021916908363ffffffff1602179055505033600460008563ffffffff1663ffffffff16815260200190815260200160002060006101000a81548173ffffffffffffffffffffffffffffffffffffffff021916908373ffffffffffffffffffffffffffffffffffffffff1602179055506111ac6040518060400160405280601b81526020017f25732068617320766f74656420256420666f7220776973682025640000000000815250338460ff168663ffffffff16612150565b6111b46121f2565b6006819055506111fe6040518060400160405280601681526020017f52616e646f6d20232067656e6572617465643a2025640000000000000000000081525060065460ff166120b4565b61124f6040518060400160405280601b81526020017f426f6e7573205468726573686f6c642050657263656e743a2025640000000000815250600760009054906101000a900460ff1660ff166120b4565b6112a06040518060400160405280601881526020017f426f6e757320566f7465205468726573686f6c643a2025640000000000000000815250600760019054906101000a900460ff1660ff166120b4565b600760009054906101000a900460ff1660ff1660065460ff16111580156112e35750600760019054906101000a900460ff1660ff166112de84610723565b60ff16115b1561141f5747600854111561132d576040517f08c379a000000000000000000000000000000000000000000000000000000000815260040161132490612d9b565b60405180910390fd5b60003373ffffffffffffffffffffffffffffffffffffffff1660085460405161135590612ada565b60006040518083038185875af1925050503d8060008114611392576040519150601f19603f3d011682016040523d82523d6000602084013e611397565b606091505b50509050806113db576040517f08c379a00000000000000000000000000000000000000000000000000000000081526004016113d290612d7b565b60405180910390fd5b61141d6040518060400160405280601281526020017f25732068617320776f6e2025642077656921000000000000000000000000000081525033600854612238565b505b3373ffffffffffffffffffffffffffffffffffffffff167f72099e9f95eb882086e5bec0f8923b2bc25c7bed67a4e32268f2d9089edeaacd84428560405161146993929190612eef565b60405180910390a2505050565b60006114cf6040518060400160405280601581526020017f576527766520256420746f74616c20766f746573210000000000000000000000815250600360009054906101000a900463ffffffff1663ffffffff166120b4565b600360009054906101000a900463ffffffff16905090565b6114ef611cfa565b73ffffffffffffffffffffffffffffffffffffffff1661150d610dd6565b73ffffffffffffffffffffffffffffffffffffffff1614611563576040517f08c379a000000000000000000000000000000000000000000000000000000000815260040161155a90612dbb565b60405180910390fd5b60008160ff1611801561157a575060ff8160ff1611155b6115b9576040517f08c379a00000000000000000000000000000000000000000000000000000000081526004016115b090612ddb565b60405180910390fd5b80600560046101000a81548160ff021916908360ff16021790555050565b606060005b600060149054906101000a900463ffffffff1663ffffffff1681101561178d5761177a6040518060400160405280600d81526020017f2573207769736865733a202573000000000000000000000000000000000000008152506001838154811061166f577f4e487b7100000000000000000000000000000000000000000000000000000000600052603260045260246000fd5b906000526020600020906003020160000160009054906101000a900473ffffffffffffffffffffffffffffffffffffffff16600184815481106116db577f4e487b7100000000000000000000000000000000000000000000000000000000600052603260045260246000fd5b906000526020600020906003020160010180546116f7906131e2565b80601f0160208091040260200160405190810160405280929190818152602001828054611723906131e2565b80156117705780601f1061174557610100808354040283529160200191611770565b820191906000526020600020905b81548152906001019060200180831161175357829003601f168201915b50505050506122d7565b808061178590613270565b9150506115dc565b506001805480602002602001604051908101604052809291908181526020016000905b8282101561193657838290600052602060002090600302016040518060a00160405290816000820160009054906101000a900473ffffffffffffffffffffffffffffffffffffffff1673ffffffffffffffffffffffffffffffffffffffff1673ffffffffffffffffffffffffffffffffffffffff168152602001600182018054611839906131e2565b80601f0160208091040260200160405190810160405280929190818152602001828054611865906131e2565b80156118b25780601f10611887576101008083540402835291602001916118b2565b820191906000526020600020905b81548152906001019060200180831161189557829003601f168201915b505050505081526020016002820160009054906101000a900463ffffffff1663ffffffff1663ffffffff1681526020016002820160049054906101000a900463ffffffff1663ffffffff1663ffffffff1681526020016002820160089054906101000a900461ffff1661ffff1661ffff1681525050815260200190600101906117b0565b50505050905090565b60006119986040518060400160405280601681526020017f576527766520256420746f74616c207769736865732100000000000000000000815250600060149054906101000a900463ffffffff1663ffffffff166120b4565b600060149054906101000a900463ffffffff16905090565b6119b8611cfa565b73ffffffffffffffffffffffffffffffffffffffff166119d6610dd6565b73ffffffffffffffffffffffffffffffffffffffff1614611a2c576040517f08c379a0000000000000000000000000000000000000000000000000000000008152600401611a2390612dbb565b60405180910390fd5b60008160ff16118015611a43575060648160ff1611155b611a82576040517f08c379a0000000000000000000000000000000000000000000000000000000008152600401611a7990612e5b565b60405180910390fd5b80600760006101000a81548160ff021916908360ff16021790555050565b611aa8611cfa565b73ffffffffffffffffffffffffffffffffffffffff16611ac6610dd6565b73ffffffffffffffffffffffffffffffffffffffff1614611b1c576040517f08c379a0000000000000000000000000000000000000000000000000000000008152600401611b1390612dbb565b60405180910390fd5b60008111611b5f576040517f08c379a0000000000000000000000000000000000000000000000000000000008152600401611b5690612e3b565b60405180910390fd5b8060088190555050565b611b71611cfa565b73ffffffffffffffffffffffffffffffffffffffff16611b8f610dd6565b73ffffffffffffffffffffffffffffffffffffffff1614611be5576040517f08c379a0000000000000000000000000000000000000000000000000000000008152600401611bdc90612dbb565b60405180910390fd5b600073ffffffffffffffffffffffffffffffffffffffff168173ffffffffffffffffffffffffffffffffffffffff161415611c55576040517f08c379a0000000000000000000000000000000000000000000000000000000008152600401611c4c90612d1b565b60405180910390fd5b611c5e81611da1565b50565b611cf781604051602401611c759190612b69565b6040516020818303038152906040527f41304fac000000000000000000000000000000000000000000000000000000007bffffffffffffffffffffffffffffffffffffffffffffffffffffffff19166020820180517bffffffffffffffffffffffffffffffffffffffffffffffffffffffff8381831617835250505050612376565b50565b600033905090565b611d9c838383604051602401611d1a93929190612cdd565b6040516020818303038152906040527f969cdd03000000000000000000000000000000000000000000000000000000007bffffffffffffffffffffffffffffffffffffffffffffffffffffffff19166020820180517bffffffffffffffffffffffffffffffffffffffffffffffffffffffff8381831617835250505050612376565b505050565b60008060009054906101000a900473ffffffffffffffffffffffffffffffffffffffff169050816000806101000a81548173ffffffffffffffffffffffffffffffffffffffff021916908373ffffffffffffffffffffffffffffffffffffffff1602179055508173ffffffffffffffffffffffffffffffffffffffff168173ffffffffffffffffffffffffffffffffffffffff167f8be0079c531659141344cd1fd0a4f28419497f9722a3daafe3b4186f6b6457e060405160405180910390a35050565b60606000821415611ead576040518060400160405280600181526020017f3000000000000000000000000000000000000000000000000000000000000000815250905061200d565b600082905060005b60008214611edf578080611ec890613270565b915050600a82611ed891906130a3565b9150611eb5565b60008167ffffffffffffffff811115611f21577f4e487b7100000000000000000000000000000000000000000000000000000000600052604160045260246000fd5b6040519080825280601f01601f191660200182016040528015611f535781602001600182028036833780820191505090505b5090505b6000851461200657600182611f6c9190613105565b9150600a85611f7b91906132f0565b6030611f879190613013565b60f81b818381518110611fc3577f4e487b7100000000000000000000000000000000000000000000000000000000600052603260045260246000fd5b60200101907effffffffffffffffffffffffffffffffffffffffffffffffffffffffffffff1916908160001a905350600a85611fff91906130a3565b9450611f57565b8093505050505b919050565b6120ae8484848460405160240161202c9493929190612c0e565b6040516020818303038152906040527f4c55f234000000000000000000000000000000000000000000000000000000007bffffffffffffffffffffffffffffffffffffffffffffffffffffffff19166020820180517bffffffffffffffffffffffffffffffffffffffffffffffffffffffff8381831617835250505050612376565b50505050565b61214c82826040516024016120ca929190612cad565b6040516020818303038152906040527f9710a9d0000000000000000000000000000000000000000000000000000000007bffffffffffffffffffffffffffffffffffffffffffffffffffffffff19166020820180517bffffffffffffffffffffffffffffffffffffffffffffffffffffffff8381831617835250505050612376565b5050565b6121ec8484848460405160240161216a9493929190612c61565b6040516020818303038152906040527fdaa394bd000000000000000000000000000000000000000000000000000000007bffffffffffffffffffffffffffffffffffffffffffffffffffffffff19166020820180517bffffffffffffffffffffffffffffffffffffffffffffffffffffffff8381831617835250505050612376565b50505050565b60006064424460018054905060405160200161221093929190612aef565b6040516020818303038152906040528051906020012060001c61223391906132f0565b905090565b6122d283838360405160240161225093929190612bd0565b6040516020818303038152906040527f07c81217000000000000000000000000000000000000000000000000000000007bffffffffffffffffffffffffffffffffffffffffffffffffffffffff19166020820180517bffffffffffffffffffffffffffffffffffffffffffffffffffffffff8381831617835250505050612376565b505050565b6123718383836040516024016122ef93929190612b8b565b6040516020818303038152906040527fe0e9ad4f000000000000000000000000000000000000000000000000000000007bffffffffffffffffffffffffffffffffffffffffffffffffffffffff19166020820180517bffffffffffffffffffffffffffffffffffffffffffffffffffffffff8381831617835250505050612376565b505050565b60008151905060006a636f6e736f6c652e6c6f679050602083016000808483855afa5050505050565b8280546123ab906131e2565b90600052602060002090601f0160209004810192826123cd5760008555612414565b82601f106123e657805160ff1916838001178555612414565b82800160010185558215612414579182015b828111156124135782518255916020019190600101906123f8565b5b5090506124219190612425565b5090565b5b8082111561243e576000816000905550600101612426565b5090565b600061245561245084612f66565b612f41565b90508281526020810184848401111561246d57600080fd5b6124788482856131a0565b509392505050565b60008135905061248f81613788565b92915050565b600082601f8301126124a657600080fd5b81356124b6848260208601612442565b91505092915050565b6000813590506124ce8161379f565b92915050565b6000813590506124e3816137b6565b92915050565b6000813590506124f8816137cd565b92915050565b60006020828403121561251057600080fd5b600061251e84828501612480565b91505092915050565b60006020828403121561253957600080fd5b600082013567ffffffffffffffff81111561255357600080fd5b61255f84828501612495565b91505092915050565b60006020828403121561257a57600080fd5b6000612588848285016124bf565b91505092915050565b6000602082840312156125a357600080fd5b60006125b1848285016124d4565b91505092915050565b600080604083850312156125cd57600080fd5b60006125db858286016124d4565b92505060206125ec858286016124e9565b9150509250929050565b60006020828403121561260857600080fd5b6000612616848285016124e9565b91505092915050565b600061262b8383612999565b905092915050565b61263c81613139565b82525050565b61264b81613139565b82525050565b600061265c82612fa7565b6126668185612fca565b93508360208202850161267885612f97565b8060005b858110156126b45784840389528151612695858261261f565b94506126a083612fbd565b925060208a0199505060018101905061267c565b50829750879550505050505092915050565b60006126d182612fb2565b6126db8185612fe6565b93506126eb8185602086016131af565b6126f4816133dd565b840191505092915050565b600061270a82612fb2565b6127148185612ff7565b93506127248185602086016131af565b61272d816133dd565b840191505092915050565b600061274382612fb2565b61274d8185613008565b935061275d8185602086016131af565b80840191505092915050565b6000612776602b83613008565b9150612781826133ee565b602b82019050919050565b6000612799602683612ff7565b91506127a48261343d565b604082019050919050565b60006127bc601b83612ff7565b91506127c78261348c565b602082019050919050565b60006127df600183613008565b91506127ea826134b5565b600182019050919050565b6000612802601b83613008565b915061280d826134de565b601b82019050919050565b6000612825602783612ff7565b915061283082613507565b604082019050919050565b6000612848602783612ff7565b915061285382613556565b604082019050919050565b600061286b603083612ff7565b9150612876826135a5565b604082019050919050565b600061288e600a83613008565b9150612899826135f4565b600a82019050919050565b60006128b1602083612ff7565b91506128bc8261361d565b602082019050919050565b60006128d4602883612ff7565b91506128df82613646565b604082019050919050565b60006128f7602e83612ff7565b915061290282613695565b604082019050919050565b600061291a600d83612ff7565b9150612925826136e4565b602082019050919050565b600061293d601c83612ff7565b91506129488261370d565b602082019050919050565b6000612960600083612fdb565b915061296b82613736565b600082019050919050565b6000612983602983612ff7565b915061298e82613739565b604082019050919050565b600060a0830160008301516129b16000860182612633565b50602083015184820360208601526129c982826126c6565b91505060408301516129de6040860182612a53565b5060608301516129f16060860182612a53565b506080830151612a046080860182612a0f565b508091505092915050565b612a188161314b565b82525050565b612a278161314b565b82525050565b612a3681613179565b82525050565b612a4d612a4882613179565b6132e6565b82525050565b612a5c81613183565b82525050565b612a6b81613183565b82525050565b612a7a81613193565b82525050565b6000612a8b82612769565b9150612a978284612738565b9150612aa282612881565b915081905092915050565b6000612ab8826127f5565b9150612ac48284612738565b9150612acf826127d2565b915081905092915050565b6000612ae582612953565b9150819050919050565b6000612afb8286612a3c565b602082019150612b0b8285612a3c565b602082019150612b1b8284612a3c565b602082019150819050949350505050565b6000602082019050612b416000830184612642565b92915050565b60006020820190508181036000830152612b618184612651565b905092915050565b60006020820190508181036000830152612b8381846126ff565b905092915050565b60006060820190508181036000830152612ba581866126ff565b9050612bb46020830185612642565b8181036040830152612bc681846126ff565b9050949350505050565b60006060820190508181036000830152612bea81866126ff565b9050612bf96020830185612642565b612c066040830184612a2d565b949350505050565b60006080820190508181036000830152612c2881876126ff565b9050612c376020830186612642565b612c446040830185612a2d565b8181036060830152612c5681846126ff565b905095945050505050565b60006080820190508181036000830152612c7b81876126ff565b9050612c8a6020830186612642565b612c976040830185612a2d565b612ca46060830184612a2d565b95945050505050565b60006040820190508181036000830152612cc781856126ff565b9050612cd66020830184612a2d565b9392505050565b60006060820190508181036000830152612cf781866126ff565b9050612d066020830185612a2d565b612d136040830184612a2d565b949350505050565b60006020820190508181036000830152612d348161278c565b9050919050565b60006020820190508181036000830152612d54816127af565b9050919050565b60006020820190508181036000830152612d7481612818565b9050919050565b60006020820190508181036000830152612d948161283b565b9050919050565b60006020820190508181036000830152612db48161285e565b9050919050565b60006020820190508181036000830152612dd4816128a4565b9050919050565b60006020820190508181036000830152612df4816128c7565b9050919050565b60006020820190508181036000830152612e14816128ea565b9050919050565b60006020820190508181036000830152612e348161290d565b9050919050565b60006020820190508181036000830152612e5481612930565b9050919050565b60006020820190508181036000830152612e7481612976565b9050919050565b6000602082019050612e906000830184612a1e565b92915050565b6000602082019050612eab6000830184612a62565b92915050565b6000606082019050612ec66000830186612a62565b612ed36020830185612a62565b8181036040830152612ee581846126ff565b9050949350505050565b6000606082019050612f046000830186612a62565b612f116020830185612a62565b612f1e6040830184612a71565b949350505050565b6000602082019050612f3b6000830184612a71565b92915050565b6000612f4b612f5c565b9050612f578282613214565b919050565b6000604051905090565b600067ffffffffffffffff821115612f8157612f806133ae565b5b612f8a826133dd565b9050602081019050919050565b6000819050602082019050919050565b600081519050919050565b600081519050919050565b6000602082019050919050565b600082825260208201905092915050565b600081905092915050565b600082825260208201905092915050565b600082825260208201905092915050565b600081905092915050565b600061301e82613179565b915061302983613179565b9250827fffffffffffffffffffffffffffffffffffffffffffffffffffffffffffffffff0382111561305e5761305d613321565b5b828201905092915050565b600061307482613183565b915061307f83613183565b92508263ffffffff0382111561309857613097613321565b5b828201905092915050565b60006130ae82613179565b91506130b983613179565b9250826130c9576130c8613350565b5b828204905092915050565b60006130df82613183565b91506130ea83613183565b9250826130fa576130f9613350565b5b828204905092915050565b600061311082613179565b915061311b83613179565b92508282101561312e5761312d613321565b5b828203905092915050565b600061314482613159565b9050919050565b600061ffff82169050919050565b600073ffffffffffffffffffffffffffffffffffffffff82169050919050565b6000819050919050565b600063ffffffff82169050919050565b600060ff82169050919050565b82818337600083830152505050565b60005b838110156131cd5780820151818401526020810190506131b2565b838111156131dc576000848401525b50505050565b600060028204905060018216806131fa57607f821691505b6020821081141561320e5761320d61337f565b5b50919050565b61321d826133dd565b810181811067ffffffffffffffff8211171561323c5761323b6133ae565b5b80604052505050565b60006132508261314b565b915061ffff82141561326557613264613321565b5b600182019050919050565b600061327b82613179565b91507fffffffffffffffffffffffffffffffffffffffffffffffffffffffffffffffff8214156132ae576132ad613321565b5b600182019050919050565b60006132c482613183565b915063ffffffff8214156132db576132da613321565b5b600182019050919050565b6000819050919050565b60006132fb82613179565b915061330683613179565b92508261331657613315613350565b5b828206905092915050565b7f4e487b7100000000000000000000000000000000000000000000000000000000600052601160045260246000fd5b7f4e487b7100000000000000000000000000000000000000000000000000000000600052601260045260246000fd5b7f4e487b7100000000000000000000000000000000000000000000000000000000600052602260045260246000fd5b7f4e487b7100000000000000000000000000000000000000000000000000000000600052604160045260246000fd5b6000601f19601f8301169050919050565b7f596f752063616e2774206d616b6520612077697368206d6f7265207468616e2060008201527f6f6e636520657665727920000000000000000000000000000000000000000000602082015250565b7f4f776e61626c653a206e6577206f776e657220697320746865207a65726f206160008201527f6464726573730000000000000000000000000000000000000000000000000000602082015250565b7f4e6f20766f74657320666f722074686973207769736820796574210000000000600082015250565b7f2100000000000000000000000000000000000000000000000000000000000000600082015250565b7f52617465206d757374206265206265747765656e203020616e64200000000000600082015250565b7f596f752063616e277420766f746520747769636520666f72207468652073616d60008201527f6520776973682100000000000000000000000000000000000000000000000000602082015250565b7f4661696c656420746f207769746864726177206d6f6e65792066726f6d20636f60008201527f6e74726163742e00000000000000000000000000000000000000000000000000602082015250565b7f436f6e747261637420646f6e2774206861766520656e6f75676820657468657260008201527f20746f2073656e64206120776973682100000000000000000000000000000000602082015250565b7f207365636f6e6473212000000000000000000000000000000000000000000000600082015250565b7f4f776e61626c653a2063616c6c6572206973206e6f7420746865206f776e6572600082015250565b7f566f7465207468726573686f6c64206d757374206265206265747765656e203160008201527f20616e6420323535000000000000000000000000000000000000000000000000602082015250565b7f426f6e757320766f7465207468726573686f6c64206d7573742062652062657460008201527f7765656e203120616e6420323535000000000000000000000000000000000000602082015250565b7f4e6f20766f746573207965742100000000000000000000000000000000000000600082015250565b7f426f6e7573206d7573742062652067726561746572207468616e203000000000600082015250565b50565b7f426f6e7573207468726573686f6c64206d757374206265206265747765656e2060008201527f3120616e64203130300000000000000000000000000000000000000000000000602082015250565b61379181613139565b811461379c57600080fd5b50565b6137a881613179565b81146137b357600080fd5b50565b6137bf81613183565b81146137ca57600080fd5b50565b6137d681613193565b81146137e157600080fd5b5056fea26469706673582212200057e24d076b585b23803cb6cf83e7e75d342f408b919699aad7d5fb6ce5e96f64736f6c634300080400334865792c2049276d2074686520736d61727420636f6e7472616374206f66207468652077616c6c206f662077697368657321",
  "linkReferences": {},
  "deployedLinkReferences": {}
}